S0130000474C43445F4452495645522E73726563CC
S113000045C0000060C000005EC000005CC000008D
S11300105AC0000058C0000056C0000054C0000080
S113002052C0000050C000004EC000004CC0000090
S11300304AC0000048C0000046C0000044C00000A0
S113004042C0000040C000003EC000003CC00000B0
S11300503AC0000038C0000036C0000034C00000C0
S113006032C0000030C000002EC000002CC00000D0
S11300702AC0000028C0000026C0000024C00000E0
S113008022C0000020C000001EC0000011241FBEBA
S1130090CFEFD0E1DEBFCDBF18E0A0E0B1E0E8EDE6
S11300A0F9E000E00BBF02C007900D92A031B10748
S11300B0D9F728E0A0E1B8E001C01D92AA31B20747
S11300C0E1F754D487C49CCF1C981B9A1A9A809346
S11300D062001E981B9800000000000000001B9A9C
S11300E01E9A08958FEF8093610082B91D9A1D981E
S11300F000001D9A8FE19EE40197F1F700C0000013
S11301008FEAE2DF80E4E0DF80EADEDF86EADCDF3C
S113011084EADADF82EAD8DF88ECD6DF8FE2D4DF44
S113012085E2D2DF81E8D0DF80E2CECF08951C9A49
S11301301B9A1A9A809362001E981B980000000074
S1130140000000001B9A1E9A0895FF920F931F93BC
S1130150CF93DF9310E06894FF24F7F800E0812F39
S1130160806BB2DF80E1B0DF80E0AEDFCF2DD02F37
S113017080E0DDDF2197E1F71F5F183081F7DF9121
S1130180CF911F910F91FF900895CF93C62F806B4D
S11301909BDF8C2F82958F70806196DF8C2F8F7000
S11301A093DFCF9108957F928F929F92AF92BF92E7
S11301B0CF92DF92EF92FF920F931F93CF93DF932F
S11301C0A62EB12CA114B10461F1722EC42ED12C2F
S11301D0E82EF92E00E010E0802F806B75DF80E1BF
S11301E073DF80E071DFC114D104A1F0E601CE0D0C
S11301F0DF1D4701772029F0F4018081809597DF86
S113020003C0F401808193DFFFEF8F1A9F0A8C16DD
S11302109D0681F70F5F1F4FEC0CFD1C0A151B0593
S1130220D9F6DF91CF911F910F91FF90EF90DF905E
S1130230CF90BF90AF909F908F907F9008952F9212
S11302403F924F925F926F927F928F929F92AF9262
S1130250BF92CF92DF92EF92FF920F931F93CF93AF
S1130260DF9300D01F92CDB7DEB76C01862E442EEB
S1130270F22E622F842F89DF882009F483C056016F
S11302808A94912CA4014F5F5F4F4601840E951E02
S11302901F2D512CF98233243394212CF32C652CFB
S11302A0183748F04394EE2011F0198101C0152D40
S11302B0612F842D6ADF6501F5012081822F90E092
S11302C08097FC01EE0FFF1FEE0FFF1FEE0FFF1FC5
S11302D0E81BF90BE050FF4F8081932D811101C081
S11302E0952D91112EC0932D203209F0952D911149
S11302F028C0712E35C0F6012081822F90E08097AE
S1130300FC01EE0FFF1FEE0FFF1FEE0FFF1FE81B98
S1130310F90B4A815B81E40FF51FE050FF4F8081A8
S11303204F5F5F4F5B834A839F2D811101C0962DE0
S113033091110AC09F2D203209F0962D911104C00D
S11303400FC051E05A832B82002319F08095EFDE11
S113035001C0EDDE7A80710E8A819B81079759F680
S1130360002329F08FEFE3DE11E0170D04C0852D83
S1130370DEDE11E0170D9FEFA91AB90AA814B9041B
S113038009F08ECF0F900F900F90DF91CF911F91B6
S11303900F91FF90EF90DF90CF90BF90AF909F9020
S11303A08F907F906F905F904F903F902F90089523
S11303B02F923F924F925F926F927F928F929F9271
S11303C0AF92BF92CF92DF92EF92FF920F931F935F
S11303D0CF93DF93CDB7DEB7E1970FB6F894DEBFC6
S11303E00FBECDBF4FA3E8AA662309F484C19EA320
S11303F08DA36150462F50E04F5F5F4FBC01640FE7
S1130400751F7FA76EA7922E29ABCE0101969E8FF2
S11304108D8F3E019DE1690E711CAD8DA8A7BE8D27
S1130420B9A7FE017096F8A3EF8F9E01215F3F4F9D
S11304303AA329A36901312C592C402E71E7751573
S113044048F48FA18E5F8FA398A9992311F059A81E
S113045001C0512C8E010F5F1F4FE8A5F9A5119221
S1130460E615F705E1F7ADA1BEA1BCA3ABA38C9142
S113047090E08097DC01AA0FBB1FAA0FBB1FAA0F35
S1130480BB1FA81BB90BA050BF4FFE013296AD0194
S1130490DA018D91AD019F0121503109D9018C936D
S11304A0808332962F8D38A1E217F30789F7BE01B6
S11304B0615F7F4F5B01A8A5B9A54801F6016C9166
S11304C0462F407450E0262F207230E0862F807132
S11304D090E06078E62E062F10E015950795BA0196
S11304E075956795602B6E29559547955595479554
S11304F0462B7901F594E794F594E794042F0E299B
S1130500359527953595279535952795202B8C017D
S1130510159507951595079515950795022B9595AE
S11305208795959587959595879595958795802B2E
S113053081931C91212F287030E0412F447050E0AA
S1130540812F827090E0B90162957295707F762751
S1130550607F7627220F331F220F331F220F331F92
S1130560262B312F3170232B8A01000F111F000F0E
S1130570111F000F111F202B440F551F440F551F2F
S1130580422B7C01EE0CFF1CEE0CFF1CE42A880FAE
S1130590991F8E29330F832B8D93AC15BD0509F05C
S11305A08ECF84010F2EFEE02F2EF02D250C7FA17F
S11305B0706B8FA18F5F806BF82E45015801052D5C
S11305C07BA66AA67F2CDDA6CCA6D42C422C572E63
S11305D0252C852D79DD102F12951F701061812F28
S11305E073DD802F8F70E82E6FDDD5018D915D0155
S11305F0F401F1904F0121E0811101C0232D91E01C
S1130600F11001C0932D922B49F491E0ABA1BCA150
S11306102C91203209F0932D992311F1DD2061F002
S1130620809585DD872D50DD812F4EDD8E2D4CDDAF
S11306308F2D80957CDD09C07ADD872D45DD812FE6
S113064043DD8E2D41DD8F2D72DD0F5F0411C0CF90
S1130650122D242C4D2C6AA47BA4CCA4DDA407C0A9
S1130660122D4D2C6AA47BA4CCA4DDA4202E4420FE
S1130670E1F0812F29DD122D12951F701061812F59
S113068023DD022D0F70802F1FDD8FEF50DD8FA132
S11306908F5F806B19DD812F17DD802F15DD8FEFC4
S11306A046DD55245394520C1BC0812F0DDD122DB1
S11306B012951F701061812F07DD022D0F70802F9E
S11306C003DD80E034DD8FA18F5F806BFDDC812F43
S11306D0FBDC802FF9DC80E02ADD55245394520C96
S11306E0EDA1FEA13196FEA3EDA32EA53FA5E21731
S11306F0F30709F0A3CEE1960FB6F894DEBF0FBE60
S1130700CDBFDF91CF911F910F91FF90EF90DF90BC
S1130710CF90BF90AF909F908F907F906F905F909D
S11307204F903F902F900895E0E1F8E089E48083B2
S113073084E481838AE3828380E28383D3DC05DDDE
S113074020E040E868E080EA93E02DDD2FEF83EDC0
S113075090E3215080409040E1F700C000000895EC
S1130760EF920F93CF93DF93EC01EFDCE12C00E0E9
S113077027E140E06EE080EA97E061DD26E142E0B7
S113078066E08FEA97E014DE2CE044E067E086EB55
S113079097E00EDE2CE046E06EE08EEB97E04FDD56
S11307A0FE01A4E1B8E09E012A5F3F4F91919D9321
S11307B0E217F307D9F7E12C00E020E247E06AE012
S11307C080E198E03CDDDF91CF910F91EF900895A7
S11307D0CF92DF92EF920F93CF936C01B6DCE12CB2
S11307E000E027E140E06EE080EA97E028DD68E081
S11307F081E0CBDCCCE680EC9ADCC150E1F7E12C63
S113080001E028E042E068E08DEC97E0D1DD28E0EB
S113081044E068E086ED97E0CBDD68E086E0B5DC97
S1130820CCE68FEF84DCC150E1F7E12C01E02DE14F
S113083046E06AE08FED97E002DD68E087E0A5DC42
S1130840CCE68FEF74DCC150E1F7F601A4E1B8E027
S113085096012A5F3F4F91919D93E217F307D9F7D1
S1130860E12C01E020E247E06AE080E198E0E7DC87
S1130870CF910F91EF90DF90CF900895CF92DF92B8
S1130880EF920F93CF936C0160DCE12C00E027E141
S113089040E06EE080EA97E0D2DC68E081E075DC5D
S11308A0CCE680EC44DCC150E1F7E12C01E028E027
S11308B042E068E08DEC97E07BDD28E044E068E00E
S11308C086ED97E075DD68E086E05FDCCCE68FEFCF
S11308D02EDCC150E1F7E12C01E026E146E06CE0BA
S11308E08AEE97E0ACDC68E087E04FDCCCE68FEF83
S11308F01EDCC150E1F7F601A4E1B8E096012A5FDD
S11309003F4F91919D93E217F307D9F7E12C01E052
S113091020E247E06AE080E198E091DCCF910F911A
S1130920EF90DF90CF900895CF92DF92EF920F93E4
S1130930CF93DF936C01EB0108DCE12C00E027E1AD
S113094040E06EE080EA97E07ADC2CE242E068E086
S1130950C60175DC20E244E068E0CE0129DDDF91C8
S1130960CF910F91EF90DF90CF900895DDDE67EF88
S113097077E080E098E0D8DF2FEF83ED90E321501B
S113098080409040E1F700C0000089E098E020DF5B
S11309902FEF81E19AE7215080409040E1F700C0B9
S11309A0000089E098E0DCDE2FEF81E19AE7215036
S11309B080409040E1F700C0000089E098E05EDFED
S11309C02FEF81E19AE7215080409040E1F700C089
S10B09D00000CDCFF894FFCF25
S11309D8000000000000005F0000000000000700A5
S11309E8070000000010741C771C170426497F496F
S11309F83A000047251708745271304E497526503D
S1130A0848070000000000003E41000000000041CB
S1130A183E00000000004224187E18244208083EC4
S1130A2808080000583800000000000808080800FA
S1130A3800004000000000000060180600000000EC
S1130A483E41413E000000427F40000000006651E4
S1130A584966000000224949360000001814527FF4
S1130A685000006F4949310000003E4949320000F6
S1130A780043714D03000000364949360000002642
S1130A8849493E0000006666000000000056360032
S1130A9800000000081422000000001414141400BC
S1130AA80000221408000000000259090600000092
S1130AB81C225D555D512E407E4909497E40417F87
S1130AC849493600003E414142270000417F4141E7
S1130AD8413E00417F4949494163417F490909032E
S1130AE8003E414151523700417F4908497F414105
S1130AF87F41000000003040413F010000417F4930
S1130B0814634100417F4140407000417F420442E8
S1130B187F41417F431C607F413E4141413E00008B
S1130B28417F49090600003E414151215E00417F51
S1130B3849196946403265494953260003417F41B2
S1130B48030000013F4140413F01010719601907B3
S1130B58013F40300830403F416355085563410127
S1130B68034D704D0301635149456300007F4141C2
S1130B78000000000618600000000041417F0000EA
S1130B8800000601060000000040404040404000CC
S1130B980102000000000064545478400000417FC2
S1130BA848483000003844442C0000003048497F4D
S1130BB840000038545458000000487F490300009E
S1130BC8002649493F010000417F48087840004415
S1130BD87D400000000060447D00000000417F501B
S1130BE82C424200417F400000000004780478044D
S1130BF878400478040478400038444438000000FD
S1130C08427E52120C00000C12527E420000447CB8
S1130C18480404000048542400000000047F4400F1
S1130C28000000043C40443C4000041C64601C0474
S1130C38003C40300C30403C446C10106C440002C2
S1130C484E700E0200004C64544C64000008774156
S1130C58000000007F000000000000417708000049
S1130C680000180808101018007F417F00000000D9
S1130C780000000000000000000000000000000068
S1130C880000808080008080800080800000C0C0D8
S1130C9800C0C0C000C0E0E000E0E000E0E0E080A8
S1130CA8E0F0F080F0F0C0C0F0F0C070383840F8E0
S1130CB8F8F8E0F8F8F8F8F00000000030F080C028
S1130CC8F0F080C0F01000F0F08080F0F000C0F088
S1130CD8B0B0B03000F0F0B0F0F000F0F0B0B0B068
S1130CE830000000000000000000000000000000C8
S1130CF838FEFEFEFEFEF8FEFFFFF8FF7F3F381FBA
S1130D081F8C8F8FCFCCCFCFCFCCC7C7C7C6C7E771
S1130D18E6E7E7E7E7E3E3E3E3F3F3F3F3F3F3F314
S1130D28F1F1F1F1F9F9F9F9F9F9F9F0E0E0F0FF85
S1130D38FFFFFFFFFFFFFFFF00000000000707079A
S1130D480007070701000407070000070700070753
S1130D58060606000407000107060007070606063C
S1130D680000000000000000000000000000000077
S1130D7800FFFFFFFFFFFFFFFFFF1F0100F0FCFE66
S1130D88FFFF3F1F0F070703838383030307070F2F
S1130D981F7FFFFFFFFFFFFFFFFFFFFFFFFFFFFFB7
S1130DA8FFFFFFFFFFFFFFFFFFFF7F7F7F7F7F7F47
S1130DB87FFFFFFFFFFFFFFFFE0000007F7F006053
S1130DC87F6761233F1E007F7F6D6D6D40703C1F00
S1130DD81B1F7C6000676F79310000000000000071
S1130DE800000000000000000000000000000000F7
S1130DF8000F0F1F1F3F7FFFFFFCE00008FFFFFFEE
S1130E08CFC0C0C080F8FEFFFFFFFFFFFFFC00005B
S1130E18000001FFFFFFFFFF030301011F0701811A
S1130E28C0C0FFFFFF87838180E0F0F8F8F8F8F08E
S1130E38E000000107FFFFFFFF0000001010F0F0C2
S1130E481010F0F0000000F0F000F0F090F07020C6
S1130E58F0F070E080F0F0000000000000000000F6
S1130E680000000000000000000000000000000076
S1130E780000000000000001FFFFFF0000FFFFFF6B
S1130E88FFFFFFFFFFFFFFFFFF7F3F0F070100800A
S1130E98E0F0FCFFFFFFFFFFC000000000FCFFFFC5
S1130EA8FFFFFFFFFF1F0F070783C3E1F1F1F0F016
S1130EB8F8000000007FFFFFFFFC000000000303B0
S1130EC800000103020203030000030300030200FD
S1130ED883830001030303000000000000000000F6
S1130EE800000000000000000000000000000000F6
S1130EF80000E07030383C7EFFFF7F0F0000FFFFEA
S1130F08FF3F1F0F07030301406070787C7E7F3F1B
S1130F183F3F3F3F7FFFFFFFFF000000007FFFFFD1
S1130F28FFFFFFFFF8C0800000030F0F1F0F0F879C
S1130F38C1F0000000003FFFFFFF00003F3F00300A
S1130F483F030F3C3F3F0001013F3F01011E3F3378
S1130F582121331F0C0000000000000000000000E5
S1130F680000000000000000000000000000000075
S1130F78000000FCF8F0F8FCFCFCFCFCFCFFFFFFA4
S1130F88FFF0E0E0E0E0E0F0F0F0F0F0F0F0F8F886
S1130F98F8F8F8F8F8FFFFFFFFF8F8FCFCFCFFFF8F
S1130FA8FFFF7FFFFFFF7FFFFE3EFEFEFE3EFFFFCB
S1130FB8FF3FFFFF1F1FFFFFFFFF3800F8F85858D7
S1130FC87830F8F818D8F87000F0F0181818F0F01D
S1130FD800F8F81818B8F0E080F8F80000F8F800FD
S1130FE8F0F0181818001818F8F818183078D8D825
S1130FF80000001F7F7F7F7F7F073F3F3F073F3F02
S113100807073F1F031F1F1F031F1F1F011F0F0178
S11310180F0F0F010F0F0F000F070400070700073A
S11310280703000303030003030000030100010195
S1131038010001010000000000000000030300009B
S11310480000030300010302000103030203030178
S11310580003030303030100010303020303010064
S11310680103030203000000030300000302030357
S11310787777772E3272612D62642E636F6D00412B
S11310884343455353004752414E544544007E7EE2
S11310987E7E7E7E7E7E7E7E7E7E7E7E00204143B8
S11310A84345535320002044454E494544200049B4
S11310B84E56414C494420494400494E56414C49F6
S11310C8442054494D450030333A35363A313700D7
S11310D831312F30382F313600304133463944000E
S9030000FC
